:020000040800F2
:10000000A81D0020D5000008190A00081B0A0008D6
:1000100000000000000000000000000000000000E0
:100020000000000000000000000000001F0A00089F
:100030000000000000000000230A00080D5C00081A
:10004000E7000008E7000008E7000008E7000008F4
:10005000E7000008310A0008E7000008250A000848
:1000600000000000E7000008E7000008E7000008C3
:10007000E7000008E700000800000000E7000008B3
:1000800000000000E7000008000000000000000081
:10009000E700000800000000E7000008E700000893
:1000A000E7000008E7000008E7000008C969000849
:1000B000D3690008E700000800000000000000000D
:1000C0000348854607F0D0F800480047FD060008C1
:1000D000A81D00200448804704480047FEE7FEE7CB
:1000E000FEE7FEE7FEE7FEE7B9080008C1000008EA
:1000F00030B593B0FE48806B012109070843FC49E5
:100100008863FC4800680321C90288430121C902B1
:100110004018F84908600220019001200490102046
:10012000059002200A9000210B9141040C91410599
:100130000D9101A801F096F801200E9003200F9078
:10014000002010901190129001210EA801F012FCD5
:1001500001F056FD0546642106F0E6FF044600F076
:10016000ADFD042000F004FE13B030BD10B572B632
:1001700000F077FCFFF7BCFF05F020FE05F0E4FE81
:1001800006F07CFF06F060FB06F09FFF06F0AEFA7B
:1001900006F045FC62B610BD10B57D21C900D648F9
:1001A000006805F043FD002815D0D44800780028E9
:1001B00005D105F098FD0120D049087005E0002028
:1001C00005F078FD0020CD49087005F02CFDCA49E6
:1001D0000860012010BD0020FCE710B50020C849D0
:1001E0000871C84908710021C7484176C1750020CF
:1001F000C649488048710871C549C64807F007F8E4
:1002000010BD10B505F00FFDC349086010BD30B535
:10021000A7B004460D462A46214601A8013006F043
:10022000DDFFBE4901A806F0E3FA27B030BDFFB5F7
:10023000B5B007460E46CE2101A806F0E8FFB84843
:1002400000680090002400BF30460930C1B2684603
:1002500081708078041900216846C170C078041943
:1002600068460171007904196846417140790419A2
:10027000684681718079041968463799C171C079DF
:10028000041900250AE0795D6A46284608301154B1
:100290006946085C001984B2681CC5B2B542F2DB3D
:1002A0006A4629460831389850546946A81D085CAA
:1002B000001984B22112284609301154401C1454EC
:1002C00068468078811C684606F0D0F939B0F0BDE8
:1002D000FFB583B00646144604980090022E04D160
:1002E00021460498FFF793FF40E0012E39D100BF6B
:1002F000C02C2FDDC021204606F02CFFC0B202909A
:10030000C021204606F026FFC8B201900025002734
:1003100013E0681CC5B20298854201D1002000E0BC
:10032000284605462B46C021069A0098FFF77FFF16
:100330000098C0300090781CC7B202988742E8DB72
:100340000198002812D00023069A01990098FFF71F
:100350006EFF0BE0E1B20023069A0498FFF767FFF7
:1003600004E021460498FFF752FFC1E707B0F0BD53
:1003700010B5FFB0E3B004460020E190E121890010
:10038000684606F044FF012C10D166480278C11F70
:10039000F939684606F022FF62480178FF380138D3
:1003A00006F035FF00215F48017011E05E48018BC7
:1003B000408B0A1A5D49684606F010FF96215B489B
:1003C00006F025FF962259495748403803F070FD42
:1003D00068460078A52849D168464078A52845D1C7
:1003E0006846C078002841D16846007900283DD190
:1003F00068464079002839D168468079002835D18F
:100400006846C079012802D0A1282DD11BE0022026
:1004100047490870012005F066FC0020E0A908713A
:1004200001231A46E1A91846FFF752FFFF212D319B
:10043000012005F016FD012005F03CFCFFF7CDFE84
:10044000FFF7DFFE11E06846007A00280BD1FFF7C6
:10045000C4FE0020364908709621042005F001FDF5
:10046000012005F027FC00E000BF00BF7FB063B0B3
:1004700010BDF8B52F48018B408B081A85B20027B4
:10048000002600240020009020212A48203081727C
:1004900000BF2946284806F0E0FC0746AF4274DA60
:1004A0002548C17918488175807D00022249097A62
:1004B0004018801EC1B2144881753846093080B298
:1004C0000090002408E0009800191B49085C0E49C0
:1004D00080390855601C84B20B48807DA042F2DC54
:1004E0001549B81D085C01282DD0022831D025E01F
:1004F00000100240007000400800002004000020AE
:10050000200000202800002088130020580300202D
:1005100002030000580000200000002000440040BA
:10052000FC720008EC090020340A0020D40A0020E4
:1005300030000020A40A0020EE0E002007280ED074
:10054000082818D111E00121CB48017606F0A0FC63
:1005500012E00221C848017606F052FD0CE00721A6
:10056000C548017606F095FC06E00821C2480176F0
:1005700006F042FD00E000BF00BFBF48807D064698
:100580000B36B5421BDD002406E01CE03019BB49E8
:10059000085C0855601C84B2A81BA042F6DCA81BAE
:1005A00084B204E00020B5490855601C84B2AC4216
:1005B000F8DBA81B85B20021AF48817504E000215B
:1005C000AD48817501E000E063E700BFE1218900EB
:1005D000AA4806F01CFEE1229200A849A84803F0B0
:1005E00067FCF8BD10B5A7484288A123A6490120A1
:1005F000FFF76EFE012005F076FB10BD0120A1493A
:100600004871704738B50446A0A0006800902300E8
:1006100006F054FE05040913181F2A003221062093
:1006200005F01FFC21E09621012005F01AFC0022B4
:100630009749C82005F06CFA17E09621022005F0D2
:1006400010FC12E09621032005F00BFCFFF7CAFF17
:100650000BE03221062005F004FC552301226946F7
:100660001046FFF735FE00E000BF00BF38BD10B5F3
:1006700088484078002840D08649487806F0BCF980
:1006800000283AD08448007803282ADA8148407844
:10069000030006F013FE0A24060A070E1219152499
:1006A0001E2400BF06F038FA1AE0012006F042FAD4
:1006B00016E0022006F03EFA12E006F04EFA0FE0D5
:1006C000012006F05AFA0BE00121084606F07BFAF9
:1006D00006E096220021012006F0DDFA00E000BFCE
:1006E00007E00020FFF78EFF00206B490870694982
:1006F000487005F098FA6849486010BDFFF736FD6C
:1007000006F0F9FCFFF769FD002005F0ECFA012086
:1007100005F0E9FA7D20C00005F0BFFA002005F0E1
:10072000C9FA012005F0C6FA7D21C900012005F0B3
:1007300098FBFFF766FD48E0FFF72EFD574840782D
:10074000012804D1FFF714FE00215448417051489C
:100750000078002818D0FFF78AFF514951480068F7
:1007600005F064FA00280FD0FF21F531012005F0D3
:1007700078FB012005F09EFAFFF72FFD0020454988
:1007800008704870FFF73DFD4748007901280BD1FC
:1007900045490868142105F049FA002804D00020D2
:1007A00041490871FFF765FE4048007901280CD1E6
:1007B0003E4908681E2105F039FA002805D00020BE
:1007C0003A4908710220FFF7D3FDB5E710B504469A
:1007D0000120C002844204D105F0A0FF052000F0F2
:1007E00041FA012C28D1FFF70CFD2A480078002897
:1007F00022D028480078022802D0042813D10BE028
:1008000020484079012803D103202249487002E0A2
:1008100001202049487007E0012005F04BFA012033
:100820001C49487000E000BF00BF00201A49087052
:1008300005F0F9F91849486010BD10B504460120CB
:10084000207105F0F0F9206010BD10B5044618497C
:100850002068884202D11548FFF7EFFF154920684C
:10086000884202D11048FFF7E8FF10BD10B5002004
:1008700005F020FA10BD000088130020EE0E0020C5
:10088000640A0020580300205800002001000000E6
:10089000FD0500083000002034000020EC09002095
:1008A00060EA000000000020200000202800002056
:1008B00000440040003801404E480068FF210131EB
:1008C00008434C4908600846C0684B4908404949FC
:1008D000C86008460068494908404649086008461B
:1008E000806840084000886008460068012189044B
:1008F0008843404908600846C068FD2109048843D0
:100900003C49C86000200861C8033D4988607047C1
:10091000F8B5002500240026002000900027354867
:10092000C0680C2108400546002D06D0042D11D0CA
:10093000082D13D00C2D41D114E02E48406807211A
:1009400049030840470B781C01218140C8032D4909
:10095000086040E02C482B4908603CE02B482949BE
:10096000086038E02348C0680F2189040840044625
:100970002048C0680321890508400646A00C244988
:100980000C5CB00D461C1B48C068012109040840DE
:1009900000900098002808D11B4961430846314661
:1009A00006F0C2FB1749086007E018496143084692
:1009B000314606F0B9FB134908600CE00D48406869
:1009C000072149030840470B781C01218140C803D7
:1009D0000C49086000BF00BF0648C068F02108400D
:1009E00000090C490D5C07480068E84005490860AB
:1009F000F8BD0000001002400C40FF88F6FFF6FE34
:100A000000ED00E00C0000200024F40000127A0049
:100A10001873000800730008704700BFFEE77047B6
:100A20007047704710B50120C00200F080FB10BD78
:100A300010B5012000F07BFB10BD0000704770B5C1
:100A400004467D21C9005F48006806F06DFB05463D
:100A500000F034F900222146501E00F0FAF8002080
:100A600070BD10B5584800684021084356490860D9
:100A70000846006802210843534908600320FFF735
:100A8000DEFFFFF7DBFF002010BD704710B5002030
:100A9000C0434E49886200208862401E48620020A0
:100AA0004862401E086200200862401EC8610020A3
:100AB000C861FFF7EAFF002010BD45480068401CF0
:100AC00043490860704742480068704731B50024C8
:100AD000FFF7F9FF044600BFFFF7F5FF001B009981
:100AE0008842F9D338BD3B4800690221884339491F
:100AF0000861704737480069022108433549086199
:100B000070473548704735480068000C70473348D7
:100B100000680005000D7047304840680121084317
:100B20002E49486070472D484068400840002B49D6
:100B300048607047294840680221084327494860B7
:100B4000704726484068022188432449486070471E
:100B500022484068042108432049486070471F48E4
:100B60004068042188431D49486070471B49496813
:100B700001431A4A51607047184949688143174A2E
:100B80005160704716480068032109020840704709
:100B90001349096A30229143114A11621146096AC8
:100BA0000143116270470E48006A0121C9070843DA
:100BB0000B49086270470A48006A4000400808492B
:100BC000086270470C000020002002400010024024
:100BD0001000002000E000E0000208010058014081
:100BE0000000014010B5002819DA814A03071B0FE5
:100BF000083B9B089B00D2588307DC0EFF23A340D1
:100C00009A438B071B0E8407E40EA3401A43784BCC
:100C10000407240F083CA408A4001A5118E0754AE0
:100C200003231B02D21883089B00D2588307DC0ED3
:100C3000FF23A3409A438B071B0E8407E40EA340B7
:100C40001A436C4B032424021B198408A4001A5174
:100C500010BD70B504460D46164629462046FFF7DE
:100C6000C1FF70BD00BFC206D20E01219140614A92
:100C7000116000BF704700BFC206D20E0121914033
:100C80005C4A8032116000BF704700BF00BF00BFE8
:100C900000BF00BFBFF34F8F00BF00BF00BF56486B
:100CA00053491C39C86000BF00BF00BFBFF34F8F5E
:100CB00000BF00BF00BF00BF00BFFDE770B5044626
:100CC0002546681E4D49884201D901200CE0681E66
:100CD0004B4948610321081FFFF784FF0020484962
:100CE000886107200861002070BD01460846002881
:100CF0000CDA3F4A03071B0F083B9B089B00D258A6
:100D00008307DB0EDA401206920F0BE0394A032309
:100D10001B02D21883089B00D2588307DB0EDA40EF
:100D20001206920F1046704700BFC206D20E012174
:100D30009140344A116000BF704710B50146084623
:100D4000304A1268C406E40E0123A3401A40002A68
:100D500001D0012200E00022104610BD00BFC206F3
:100D6000D20E01219140274A8032116000BF7047A6
:100D7000042806D12249096904221143204A11613D
:100D800005E01F490969042291431D4A116170471A
:100D9000704710B5FFF7FCFF10BD4179144A64326B
:100DA0009161017901291DD1016809090901D16108
:100DB000817A0907427A12061143C27A92041143DA
:100DC000027B52041143427B12041143C279120286
:100DD000114382795200114302791143044A64326B
:100DE000116204E00021024A6432D161116270474D
:100DF0001CED00E000E100E00400FA05FFFFFF0049
:100E000000E000E000E200E070B5034600220024AC
:100E10000020DAE0012696400D6835402C46002C73
:100E200077D04D68022D02D04D68122D15D1D5080E
:100E3000AE001D462035A8595507EE0E0F25B540CA
:100E40000646AE4330465607F60E0D69B5402843B8
:100E5000D508AD001E46203670514D68012D08D0D2
:100E60004D68022D05D04D68112D02D04D68122D10
:100E700018D1986856000325B5400646AE43304663
:100E80005600CD68B54028439860586801259540C4
:100E90000646AE43304610264D6835402D09954034
:100EA00028435860186856000325B5400646AE43EF
:100EB00030460D79AD07AD0F5600B5402843186098
:100EC000D86856000325B5400646AE433046560066
:100ED0008D68B5402843D860012636074D683540F7
:100EE000B54271D1984D6D6B01263543964E7563B1
:100EF000964D9608B600A85995072E0F0F25B540B8
:100F00000646AE43304605252D07AB4202D10025EB
:100F100015E059E08E4DAB4201D101250FE08D4D1A
:100F2000AB4201D102250AE08B4DAB4201D1032532
:100F300005E08A4DAB4201D1052500E00625960764
:100F4000360FB5402843814D9608B600A851844D10
:100F500028680546A5432846012636044D683540D5
:100F6000B54202D10546254328467D4D2860686874
:100F70000546A5432846012676044D683540B5420E
:100F800002D1054625432846754D6860A868054688
:100F9000A5432846012636054D683540B54202D1A5
:100FA0000546254328466E4DA860E8680546A543DA
:100FB0002846012676054D683540B54202D10546E2
:100FC00025432846664DE860521C0D68D540002D2B
:100FD00000D01FE770BDF0B50B46002100220024B1
:100FE00073E001258D401D402A46002A6CD005681B
:100FF0004F000326BE4035430560CD08AE000546D0
:101000002035AD594E07F70E0F26BE40B543CE082A
:10101000B60007462037BD5185684F000326BE4005
:10102000B5438560456801268E40B5434560C56877
:101030004F000326BE40B543C560444D8E08B60040
:10104000AC598D072E0F0F25B5402C4005252D07D7
:10105000A84201D1002514E03D4DA84201D101254F
:101060000FE03C4DA84201D102250AE03A4DA842CA
:1010700001D1032505E0394DA84201D1052500E045
:1010800006258E07360FB540A5421DD18D072E0FC0
:101090000F25B5402C462D4D8E08B600AE59A643FF
:1010A0008F08BF00EE512E4D2D6895432C4E3560B4
:1010B00035466D68954375603546AD689543B560B6
:1010C0003546ED689543F560491C1D46CD40002D21
:1010D00087D1F0BD024613690B40002B01D00120DF
:1010E00000E000207047002A01D0816100E08162A9
:1010F000704742694A404261704708B50246012084
:10110000000400900098084300900098D061D161DD
:101110000098D061D0690090D06901231B04184069
:10112000002801D0002008BD0120FCE7704710B561
:1011300004460B4840692040002804D00848446118
:101140002046FFF743FB10BD00100240080001409D
:101150000004005000080050000C0050001C00501B
:101160000004014008B5F7480068FF210131084339
:10117000F44908600846C06880088000C8600846D6
:101180000068F1490840EF490860084600680121FD
:1011900009040840009000BFEA48006889008843BD
:1011A000E84908600020C86008464068E7490840F0
:1011B000052149034018E3494860084640681F215B
:1011C00009028843012109034018DE4948600020D4
:1011D0000861DF48DF49086008BD10B501460023FB
:1011E0000022D848C068F0242040002829D1D548E2
:1011F000806B012424072040002806D0D6480068D0
:101200000324E4022040034613E0CE48806B01240F
:1012100024072043CB4CA063CF4800680324E4029A
:1012200020400346C748806B01242407A043C54CD7
:10123000A0630320C002834203D1C000814200D1D9
:101240000122C6480068400840001043C34C20609B
:1012500020460068C007C00F904201D0012010BD99
:101260000020FCE7F8B5044600252078C007C00F31
:1012700000287DD0B348C0680C21084008280BD056
:10128000B048C06808400C2813D1AE48C06801219E
:101290000904084088420CD1AA4800680121490489
:1012A0000840400C002863D06068002860D101200D
:1012B000F8BD00BF012109046068884205D1A1483A
:1012C000006808439F49086027E005210904606819
:1012D00088420ED19B48006801218904084399493E
:1012E0000860084600680121090408439549086020
:1012F00013E094480068012109048843914908607B
:1013000008460068012109040840009000BF8D488C
:101310000068890088438B49086000BF6068002826
:1013200013D0FFF7D0FB054606E0FFF7CCFB401BD0
:10133000642801D90320BBE78248006801214904E1
:101340000840400C0028F0D012E0FFF7BCFB054637
:1013500006E0FFF7B8FB401B642801D90320A7E78C
:1013600078480068012149040840400C0028F0D169
:10137000022120680840022868D17248C0680C2108
:10138000084004280BD06F48C06808400C281DD1C5
:101390006C48C068012109040840002816D169483A
:1013A0000068042108408008002804D0E068012873
:1013B00001D001207CE7634840681F21090288436F
:1013C0002169090208435F4948603FE0E06800285E
:1013D00024D05C48006809218843E16808435949E2
:1013E0000860FFF770FB054606E0FFF76CFB401B4B
:1013F000022801D903205BE7524800680421084015
:1014000080080028F1D04F4840681F210902884316
:101410002169090208434B49486017E049480068C0
:101420004008400047490860FFF74DFB054606E0CD
:10143000FFF749FB401B022801D9032038E7414848
:1014400000680421084080080028F1D1102120689C
:101450000840102860D13B48C0680C210840002893
:101460005BD138480068012149020840400A002841
:1014700004D0A069002801D1012019E73148216A70
:101480004068072252031040814219D9206AFFF7B1
:10149000A4FE002801D001200AE72A48406807215D
:1014A00049038843216A0843264948600846406842
:1014B0000002000A217F090608432249486018E01B
:1014C00020484068072149038843216A08431D4991
:1014D0004860084640680002000A217F0906084368
:1014E00018494860206AFFF778FE002801D00120E3
:1014F000DEE6206A400B401C01218140C8031149EF
:10150000C968F02211400909154A515CC8401149C7
:1015100008600320FFF793FA59E0A06900283CD047
:1015200008480068FF210131084306490860FFF7B9
:10153000CAFA054616E0FFF7C6FA401B022811D981
:101540000320B5E600100240F4FFF6FEFF1FFF0087
:1015500080841E000C00002000700040002002402B
:1015600000730008FC480068012149020840400A55
:101570000028E0D0F8484068072149038843216AE1
:101580000843F5494860084640680002000A217F88
:1015900009060843F049486019E0EF480068FF2158
:1015A00001318843EC490860FFF78DFA054606E0F3
:1015B000FFF789FA401B022801D9032078E6E648A4
:1015C0000068012149020840400A0028F0D10821A2
:1015D00020680840082839D1606900281BD0DE48FF
:1015E0004030006901210843DB4940310861FFF7C1
:1015F0006AFA054606E0FFF766FA401B022801D9A1
:10160000032055E6D44840300069022108404008D4
:101610000028F0D01AE0D04840300069400840006F
:10162000CD4940310861FFF74EFA054606E0FFF765
:101630004AFA401B022801D9032039E6C648403047
:1016400000690221084040080028F0D104212068E8
:10165000084004287AD10026BF48806B89060840DC
:10166000002805D1BC48806B0843BB49886301262C
:10167000BA480068FF2101310840002816D1B74858
:1016800000680843B5490860FFF71DFA054606E003
:10169000FFF719FA401B642801D9032008E6AF4878
:1016A0000068FF21013108400028F1D000BFFF2170
:1016B0000131A068884207D1A7484030006908433B
:1016C000A5494031086139E0A068002810D1A2483E
:1016D00040300069FF21013188439F494031086152
:1016E00008460069091588439B494031086125E097
:1016F00005210902A068884210D19748403000694E
:101700000121890208439449403108610846006973
:10171000891508439049403108610FE08E484030F8
:101720000069FF21013188438B4940310861084637
:1017300000690915884388494031086100BFA068E5
:10174000002816D0FFF7BFF9054608E02FE0FFF7A5
:10175000BAF9401B8249884201D90320A8E57E4896
:1017600040300069012149020840400A0028EED0BB
:1017700014E0FFF7A8F9054607E0FFF7A4F9401BBE
:101780007749884201D9032092E5734840300069C7
:10179000012149020840400A0028EED1012E05D15E
:1017A0006D48806B310788436B49886300BF606A6E
:1017B000002867D06848C0680C2108400C285FD01A
:1017C000606A022841D16448006801210906884303
:1017D00061490860FFF777F9054606E0FFF773F9FE
:1017E000401B022801D9032062E55B480068012103
:1017F00049060840400E0028F0D1E16AA06A08437B
:10180000216B08435449C968FD22120491430843DF
:101810005149C860084600680121090608434E493D
:101820000860FFF750F9054606E0FFF74CF9401B4A
:10183000022801D903203BE54748006801214906F9
:101840000840400E0028F0D01CE043480068012109
:101850000906884340490860FFF735F9054606E068
:10186000FFF731F9401B022801D9032020E53A484F
:101870000068012149060840400E0028F0D101E02F
:10188000012015E5002013E5FEB500250026002700
:1018900000240020019000902F48C5680C202840AB
:1018A000002847D0042804D008280ED00C2840D1A6
:1018B0000EE02948006810210840002802D029487D
:1018C000009001E02848009042E0284800903FE066
:1018D0000F2080042840800C25490E5C03208005E1
:1018E0002840800D471C1C48C0680121090408409D
:1018F000002807D01D4971430846394605F014FCFD
:10190000044614E01448006810210840002807D05D
:10191000144971430846394605F006FC044606E0C2
:10192000114971430846394605F0FEFB0446009410
:101930000EE000BF08484068072149030840400BFB
:1019400001900198401C01218140C803009000BF14
:1019500000BF0098FEBD0000001002400070004073
:101960008813000000093D000024F40000127A00F2
:101970001873000870B504460D460026FE4800683E
:10198000C007C00FA8420ED2FB48006840084000C4
:101990002843F949086008460068C007C00FA842FC
:1019A00001D0012070BD022120680840022807D123
:1019B000F248C068F0218843A1680843EF49C86035
:1019C0002078C007C00F00284CD06068022809D1D9
:1019D000EA480068012149040840400C002824D14D
:1019E0000120DFE76068032809D1E448006801218D
:1019F00049060840400E002817D10120D2E7606850
:101A0000012808D1DD48006804210840800800282A
:101A10000BD10120C6E7D9480068012149020840DE
:101A2000400A002801D10120BCE7D448C0688008E2
:101A3000800061680843D149C860FFF744F8064652
:101A4000606802280FD107E0FFF73DF8801BCC4902
:101A5000884201D90320A5E7C848C0680C21084086
:101A60000828F1D134E0606803280FD107E0FFF7C0
:101A70002AF8801BC249884201D9032092E7BF4857
:101A8000C0680C2108400C28F1D121E060680128D1
:101A90000FD107E0FFF717F8801BB949884201D939
:101AA00003207FE7B548C0680C2108400428F1D125
:101AB0000EE007E0FFF707F8801BB149884201D923
:101AC00003206FE7AD48C0680C2108400028F1D121
:101AD000A9480068C007C00FA8420ED9A6480068F0
:101AE000400840002843A449086008460068C00731
:101AF000C00FA84201D0012054E70421206808400B
:101B0000042808D19D48C068072109028843E1687C
:101B100008439A49C860082120680840082809D16C
:101B20009648C0680721C90288432169C900084353
:101B30009249C860FFF7A8FE9049C968F022114099
:101B40000909904A515CC8408F4908600320FEF79C
:101B500076FF002026E770B586B004460D4616468F
:101B6000142101A805F053FB0220029004900020EC
:101B70000390002C18D1FF20013001900020059027
:101B800000BF7E48C06A012108437C49C8620846FC
:101B9000C06AC007C00F009000BF00BF01A90520A8
:101BA0000007FFF731F917E0012040020190002003
:101BB000059000BF7148C06A012108436F49C8629F
:101BC0000846C06AC007C00F009000BF00BF01A94F
:101BD00005200007FFF718F96848C0687F2109064B
:101BE00088432946314308436449C86006B070BD44
:101BF000624800680121C9040843604908607047D1
:101C000061480068704700B5FFF7FAFF5B49C96893
:101C1000072212021140090A5C4A515CC84000BD0B
:101C200000B5FFF7EDFF5549C9680722D202114000
:101C3000C90A564A515CC84000BD1F2101604F4986
:101C40000968012292041140914203D1052109043F
:101C500041600AE049490968012212041140914299
:101C600001D1416001E00021416044490968C90790
:101C7000C90F002902D00121C16001E00021C1602B
:101C80003E4949681F2212021140090A01613B497D
:101C90000968FF2201321140914202D10121816184
:101CA00001E00021816135494968090EC16133496C
:101CB00049680722520311400162304940310969E5
:101CC000012292021140914203D105210902816053
:101CD0000BE02A4940310969FF220132114091424B
:101CE00001D1816001E0002181602449403109690E
:101CF000C907C90F002902D00121416101E000217B
:101D000041611E490968012212061140914202D127
:101D10000221416201E0012141621849C9680122A2
:101D20001204114081621549C9680F2292041140C2
:101D3000C1621249C96803229205114001637047CC
:101D40000F2202600D4AD2689207920F42600B4A3E
:101D5000D268F0231A408260084AD26807231B0227
:101D60001A40C260054AD268DB001A40D2080261FC
:101D7000014A1268D2070BE0002002400010024026
:101D800088130000007300080C0000201073000886
:101D9000D20F0A607047704710B507484069FF21AD
:101DA00001310840884205D1FFF7F5FFFF200130DF
:101DB0000149886110BD000000100240704710B555
:101DC0000446002C01D1012010BD5120005D0028E7
:101DD00005D10021502001552046FFF7EFFF0221D9
:101DE000512001552068006840218843216808601F
:101DF000A16860680843E168084321690843616994
:101E0000084301225202A16911400843E1690843D5
:101E1000216A0843A16A084321680860A069000C90
:101E200004210840616A0843216848602168E06A2B
:101E300008612068C069910088432168C86100205A
:101E400060650121512001550020BDE7704710B5A4
:101E50000446002C01D1012010BD02215120015562
:101E60002068006840218843216808602046FFF709
:101E7000EDFF0020606500215120015500BF50207A
:101E8000015500BF0020E7E7FFB581B004460E46CC
:101E90001D460027FEF717FE0746039800283FD18E
:101EA00033E0681C002830D0002D04D0FEF70BFE74
:101EB000C01BA84229D920684068E02188432168D6
:101EC000486020680068402188432168086001213B
:101ED0004903A06A88420DD100BF2068006888438A
:101EE00021680860206800680121490308432168CF
:101EF000086000BF01215120015500BF0021502082
:101F0000015500BF032005B0F0BD20688068304057
:101F1000B04201D1012000E000200028C1D03DE006
:101F200032E0681C00282FD0002D04D0FEF7CBFD36
:101F3000C01BA84228D920684068E0218843216856
:101F400048602068006840218843216808600121BA
:101F50004903A06A88420DD100BF20680068884309
:101F6000216808602068006801214903084321684E
:101F7000086000BF01215120015500BF0021502001
:101F8000015500BF0320BEE7206880683040B042A2
:101F900001D1012000E000200028C2D10020B2E7DA
:101FA000F8B504460E4615461F465120005D01282F
:101FB0007BD1002E01D0002D01D10120F8BD00BF42
:101FC0005020005D012801D10220F7E701215020B7
:101FD000015500BF12215120015500206065266384
:101FE000A586E586E064A064A063A087E087012160
:101FF0004903A06A88420DD100BF20680068884369
:1020000021680860206800680121490308432168AD
:10201000086000BF0121C903A068884205D120687B
:102020000068491008432168086020680068402162
:102030000840402804D020680068084321680860F0
:10204000E068002832D16068002802D0E08E0128C4
:1020500008D1216B481C206308782168C860E08E95
:10206000401EE08612E03B46002202212046FFF798
:102070000BFF002801D00320A0E7216B481C206340
:1020800008782168C860E08E401EE086E08E002857
:10209000E9D101214903A06A88423AD12068006849
:1020A000491008432168086033E064E06068002854
:1020B00002D0E08E012809D1206B00882168C86019
:1020C000206B801C2063E08E401EE08613E03B46C0
:1020D000002202212046FFF7D7FE002801D003206E
:1020E0006CE7206B00882168C860206B801C20632F
:1020F000E08E401EE086E08E0028E8D101214903F1
:10210000A06A884205D12068006849100843216808
:1021100008603B46002202212046FFF7B5FE00285A
:1021200005D0606D202108436065032046E73B46EB
:10213000012280212046FFF7A7FE002805D0606D10
:10214000202108436065032038E7A068002808D1F3
:1021500000BF2068C068009020688068009000BFC1
:1021600000BF01215120015500BF00215020015521
:1021700000BF002022E7022020E7F8B504460E4603
:1021800017461D46002000905120005D012803D015
:102190005120005D222873D1002E03D0002F01D0E2
:1021A000002D01D10120F8BD00BF5020005D0128A5
:1021B00001D10220F7E701215020015500BF512035
:1021C000005D012802D132215120015500206065B7
:1021D000A763A587E5872663A586E586A064E064F6
:1021E00001214903A06A88420DD100BF2068006820
:1021F000884321680860206800680121490308437A
:102200002168086000BF206800684021084040281D
:1022100004D0206800680843216808600121C902D1
:10222000E06888427ED16068002807D0FF21053130
:10223000606888420CD1E08E012809D1206B0088AB
:102240002168C860206B801C2063E08E401EE08601
:10225000E08E002820D101214903A06A884205D1DF
:1022600020680068491008432168086000220121A5
:102270002046069BFFF708FE002802D0032092E7C5
:1022800038E12068C068A16B0880A06B801CA06347
:10229000E08F401EE087D7E035E000220221204693
:1022A000069BFFF7F1FD002801D003207BE7206BA0
:1022B00000882168C860206B801C2063E08E401E6F
:1022C000E086E08E00280AD101214903A06A8842F5
:1022D00005D1206800684910084321680860002281
:1022E00001212046069BFFF7CFFD002801D00320E7
:1022F00059E72068C068A16B0880A06B801CA063B0
:10230000E08F401EE087E08E0028C6D1606800287C
:10231000C1D1002201212046069BFFF7B5FD002810
:1023200003D000E00CE003203DE72068C068A16B0B
:102330000880A06B801CA063E08F401EE08783E0D4
:102340006068002807D0FF210531606888420BD102
:10235000E08E012808D1216B481C20630878216891
:10236000C860E08E401EE086E08E00281CD101216E
:102370004903A06A884205D12068006849100843D3
:1023800021680860002201212046069BFFF77CFDA2
:10239000002801D0032006E72068C068A16B087000
:1023A000E08F401EE0874FE034E00022022120460B
:1023B000069BFFF769FD002801D00320F3E6216B9F
:1023C000481C206308782168C860E08E401EE086C3
:1023D000E08E00280AD101214903A06A884205D174
:1023E0002068006849100843216808600022012124
:1023F0002046069BFFF748FD002801D00320D2E6C7
:102400002068C068C1B2A26B501CA0631170E08F3D
:10241000401EE087E08E0028C7D16068002813D1F5
:10242000002201212046069BFFF72EFD002801D047
:102430000320B8E62068C068C1B2A26B501CA0633C
:102440001170E08F401EE08701214903A06A884295
:1024500013D1002201212046069BFFF715FD00281D
:1024600005D0606D02210843606503209BE620686B
:10247000C06881B200916846008801228021204610
:10248000069BFFF701FD002805D0606D2021084361
:102490006065032087E60121512001554903A06AA8
:1024A000884220D120688068102108400009002857
:1024B00019D0606D02210843606500BF2068006884
:1024C00009038843216808602068006801214903E6
:1024D00008432168086000BF00BF0021502001555B
:1024E00000BF01205FE600BF00215020015500BF62
:1024F000002058E6022056E6FEB504460E46154674
:102500001F46002001905120005D01287ED1002E41
:1025100001D0002D01D10120FEBD00BF5020005D83
:10252000012801D10220F7E701215020015500BF09
:1025300022215120015500206065A663A587E5870B
:10254000A064E0642063A086E0860121C903A0683E
:10255000884205D1206800684910884321680860D6
:1025600001214903A06A88420DD100BF206800689C
:1025700088432168086020680068012149030843F6
:102580002168086000BFFF210531606888420FD1D3
:10259000A06800280CD100BF00215020015500BFC9
:1025A0002B463246314620460097FFF7E6FDB3E75B
:1025B0002068006840210840402804D02068006856
:1025C000084321680860E068002825D113E03B46F5
:1025D000002201212046FFF757FC002801D00320EC
:1025E0009AE72068C068C1B2A26B501CA06311704A
:1025F000E08F401EE087E08F0128E8D801214903E1
:10260000A06A88422BD12068006800E0A2E049104F
:1026100008432168086022E013E03B4600220121C4
:102620002046FFF731FC002801D0032074E7206822
:10263000C068A16B0880A06B801CA063E08F401E67
:10264000E087E08F0128E8D801214903A06A884289
:1026500005D12068006849100843216808603B469E
:10266000002201212046FFF70FFC002801D00320A3
:1026700052E7E068002807D12068C068C1B2A26BA9
:10268000501CA063117006E02068C068A16B088030
:10269000A06B801CA063E08F401EE08701214903EE
:1026A000A06A884213D13B46002201212046FFF751
:1026B000EBFB002805D0606D022108436065032014
:1026C0002AE72068C06881B2019168468088FF21AE
:1026D0000531606888420ED10121C903A068884293
:1026E00003D04911A068884205D1206800684021C4
:1026F0008843216808600121512001554903A06ADF
:10270000884220D1206880681021084000090028F4
:1027100019D0606D02210843606500BF2068006821
:102720000903884321680860206800680121490383
:1027300008432168086000BF00BF002150200155F8
:1027400000BF0120E8E600BF00215020015500BF76
:102750000020E1E60220DFE670477047704738B599
:1027600004460A23002202212046FFF78DFB0028A1
:1027700003D0606D20210843606520684068802197
:1027800088432168486020684068402108408009EB
:10279000002838D12068406820218843216848609B
:1027A0000A23012280212046FFF76EFB002803D078
:1027B000606D202108436065A068002808D100BF33
:1027C0002068C068009020688068009000BF00BF4B
:1027D000606D002811D15120005D322806D1012101
:1027E000512001552046FFF7B9FF0CE0012151208F
:1027F00001552046FFF7B1FF05E0012151200155A9
:102800002046FFF7A9FF38BD10B50446E068002850
:1028100006D1216B481C206308782168C86006E057
:10282000206B00882168C860206B801C2063E08ECC
:10283000401EE086E08E00280DD101214903A06AE8
:10284000884205D120680068491008432168086063
:102850002046FFF784FF10BD10B503465120C05C31
:1028600001285FD1002901D0002A01D1012010BD2B
:1028700000BF5020C05C012801D10220F7E70124ED
:102880005020C45400BF12245120C4540020586565
:10289000F948D86419639A86DA86002098649863A8
:1028A0009887D8870124E4039868A04205D1186866
:1028B0000068641020431C68206001246403986A47
:1028C000A0420DD100BF18680068A0431C682060BA
:1028D000186800680124640320431C68206000BF5E
:1028E0009868002806D118684068802420431C6836
:1028F000606005E018684068A02420431C686060A0
:1029000000BF00245020C45400BF18680068402451
:102910002040402804D01868006820431C682060CC
:102920000020A4E70220A2E7704738B50446002043
:10293000009001214903A06A884237D10A2300226E
:1029400001212046FFF7A0FA002803D0606D202166
:10295000084360652068C06881B2009168460088BD
:102960000A23012211462046FFF78EFA002803D0E1
:10297000606D202108436065206880681021084050
:102980000009002812D0606D02210843606500BF75
:10299000206800680903884321680860206800688F
:1029A0000121490308432168086000BF206840688E
:1029B00040218843216848602068406880210840A1
:1029C000C009002834D1206840682021884321684C
:1029D0004860FF210531606888420ED10121C9039A
:1029E000A068884203D04911A068884205D12068B8
:1029F00000684021884321680860606D002811D17B
:102A00005120005D322806D1012151200155204678
:102A1000FFF7A4FE0CE00121512001552046FFF7ED
:102A200083FF05E00121512001552046FFF794FE68
:102A300038BD10B50446E068002807D12068C0689A
:102A4000C1B2A26B501CA063117006E02068C06880
:102A5000A16B0880A06B801CA063E08F401EE08704
:102A6000E08F002802D12046FFF75FFF10BD30B590
:102A700004465120005D01280BD0FF250535606814
:102A8000A84257D1A068002854D15120005D2228C7
:102A900050D1002903D0002A01D0002B01D1012000
:102AA00030BD00BF5020005D012801D10220F7E7B2
:102AB00001255020055500BF5120005D222802D07D
:102AC000322551200555002060656B48E064216384
:102AD000A386E3866948A064A263A387E3870125F0
:102AE0006D03A06AA8420DD100BF20680068A8430A
:102AF000256828602068006801256D032843256843
:102B0000286000BF20684068E02528432568686089
:102B100000BF00255020055500BF206800684025F3
:102B20002840402804D02068006828432568286091
:102B30000020B5E70220B3E710B50446E06800289E
:102B400007D12068C068C1B2A26B501CA06311708D
:102B500006E02068C068A16B0880A06B801CA063A1
:102B6000E08F401EE087E08F01280AD10121490350
:102B7000A06A884205D1206800684910084321688E
:102B80000860E08F002802D12046FFF7CEFE10BD7E
:102B900070B504460E4615465120005D012871D1DE
:102BA000002E01D0002D01D1012070BD00BF5020AA
:102BB000005D012801D10220F7E7012150200155D5
:102BC00000BF222151200155002060652C48A064DF
:102BD000A663A587E5870020E0642063A086E086E1
:102BE0000121C903A068884206D120680068491005
:102BF00088432168086013E0A068002810D1FF21F5
:102C00000531606888420BD100BF0021502001557A
:102C100000BF2B46324631462046FFF728FFC4E767
:102C200001214903A06A88420DD100BF20680068D5
:102C3000884321680860206800680121490308432F
:102C40002168086000BF206840686021084321684F
:102C5000486000BF00215020015500BF2068006877
:102C600040210840402804D02068006808432168BB
:102C70000860002099E705E009280008332A0008C9
:102C8000392B0008022090E770B50546AC6A002099
:102C9000E086E087012151200155606D1021084335
:102CA00060652046FFF758FD70BD38B50546AC6A33
:102CB0002868006820210840002822D10A23002229
:102CC00002212046FFF7E0F8002803D0606D2021A4
:102CD0000843606520684068022188432168486095
:102CE0000A23012280212046FFF7CEF8002803D0D6
:102CF000606D2021084360650020E086012151209D
:102D00000155A068002808D100BF2068C068009065
:102D100020688068009000BF00BF606D002803D06D
:102D20002046FFF719FD02E02046FFF716FD38BDEB
:102D3000704770B50446A56A2846FFF7F9FF70BDD5
:102D4000F8B504460E4615465120005D012871D1A4
:102D5000002E01D0002D06D100BF002150200155CA
:102D600000BF0120F8BD00BF5020005D012801D147
:102D70000220F7E701215020015500BF1221512008
:102D80000155002060652663A586E586E064A064A1
:102D9000A063A087E0870121C903A068884205D10C
:102DA0002068006849100843216808600121490330
:102DB000A06A88420DD100BF20680068884321685E
:102DC0000860206800680121490308432168086001
:102DD00000BFFE48216C0863FD48216CC862FD48B5
:102DE000216C48630020616C0863616CC862616C8F
:102DF0004863E38E27683A460C32216B206C02F060
:102E00008EFA20684068022108432168486000BFAC
:102E100000215020015500BF206800684021084073
:102E2000402804D02068006808432168086000201A
:102E300098E7FFE700BF00215020015500BF0220A6
:102E400090E738B5054600200090AC6A2868006815
:102E500020210840002861D12068406840084000D7
:102E600021684860206840680221884321684860E2
:102E700001214903A06A88422CD10A2300220121A2
:102E80002046FFF701F8002803D0606D2021084399
:102E900060652068C06881B20091684600880A2396
:102EA000012211462046FEF7EFFF002803D0606D97
:102EB00020210843606520688068102108400009CF
:102EC000002807D0606D0221084360651020C043D0
:102ED00021688860FF210531606888420ED1012198
:102EE000C903A068884203D04911A068884205D16F
:102EF0002068006840218843216808600020E0873E
:102F0000012151200155606D002803D02046FFF7B4
:102F100023FC06E02046FFF707FD02E02046FFF70E
:102F200003FD38BD704770B50446A56A2846FFF713
:102F3000F9FF70BD38B5054600200090AC6A2868DE
:102F4000006820210840002861D10902A06A884257
:102F500028D10A23012211462046FEF795FF0028BA
:102F60000BD10A23002201212046FEF78DFF002805
:102F700003D0606D2021084360652068C06881B27D
:102F80000091684600882068806810210840000988
:102F9000002807D0606D0221084360651020C043FF
:102FA000216888600A23002202212046FEF76CFF78
:102FB000002803D0606D20210843606520684068C8
:102FC00002218843216848600A230122802120468B
:102FD000FEF75AFF002803D0606D2021084360658A
:102FE0002068406840084000216848600020E08672
:102FF000E087012151200155606D002803D0204653
:10300000FFF7AAFB06E02046FFF7A8FB02E02046F8
:10301000FFF7A4FB38BD704770B50446A56A284683
:10302000FFF7F9FF70BDF8B504460E4617461D467A
:103030005120005D01280BD0FF21053160688842D6
:103040007ED1A0680028FBD15120005D2228F7D155
:10305000002E03D0002F01D0002D01D10120F8BD9A
:1030600000BF5020005D012801D10220F7E70121B7
:103070005020015500BF5120005D222802D032218E
:1030800051200155002060652663A586E586A7636B
:10309000A587E587A064E06401214903A06A88420E
:1030A0000DD100BF2068006888432168086020684F
:1030B00000680121490308432168086000BF5120CE
:1030C000005D222806D14448616C08634348616C66
:1030D000C86205E04248616C08634248616CC8629E
:1030E0003C48616C4863E38F206801460C31A26B59
:1030F000606C009002F013F92068406801210843D9
:10310000216848600020216C0863216CC862314846
:10311000216C4863E38E206802460C32216B206CE0
:10312000009002F0FCF82068006840210840402828
:1031300004D020680068084321680860206800E027
:103140000BE04068022108432168486000BF00216D
:103150005020015500BF002081E702207FE7F8B52D
:1031600004460E4615465120005D01287ED1002EF2
:1031700001D0002D06D100BF00215020015500BF15
:103180000120F8BD00BF5020005D012801D10220C0
:10319000F7E701215020015500BF222151200155A0
:1031A00000206065A663A587E587A064E0642063CE
:1031B000A086E0860121C903A068884214D1206856
:1031C0000068491088432168086021E0332D000819
:1031D000AB2C0008892C0008272F0008432E00087C
:1031E00019300008352F0008A068002810D1FF21F1
:1031F0000531606888420BD100BF00215020015585
:1032000000BF2B46324631462046FFF70CFFB8E799
:1032100001214903A06A88420DD100BF20680068DF
:103220008843216808602068006801214903084339
:103230002168086000BF9A48616C08639948616C16
:10324000C8629948616C48630020216C0863216C56
:10325000C862216C4863E38F276839460C31A26B42
:10326000606C02F05CF82068406800E015E0012125
:1032700008432168486000BF00215020015500BF6D
:103280002068006840210840402804D02068006879
:10329000084321680860002073E700BF0021502028
:1032A000015500BF02206CE7014600BF5020405C82
:1032B000012801D10220704701225020425400BF52
:1032C00008684068022290430A68506008684068B5
:1032D000400840000A68506000BF0022502042545D
:1032E00000BF0020E7E7014600BF5020405C0128F6
:1032F00001D10220704701225020425400BF0868CB
:103300004068022210430A68506008684068012241
:1033100010430A68506000BF00225020425400BF92
:103320000020E7E710B50446206C002802D0206C8E
:1033300002F02EF8606C002802D0606C02F028F8D1
:1033400020684068022188432168486020684068FE
:1033500040084000216848600121512001550020AB
:1033600010BD38B5044620684068402108408009F7
:10337000002813D020688068C007C00F0121484092
:10338000484000280AD02068806840210840800911
:10339000002803D12046A16C884738BD20684068CA
:1033A00080210840C00900280AD0206880680221D6
:1033B00008404008002803D02046E16C8847ECE72D
:1033C0002068406820210840400900285ED020681D
:1033D0008068102108400009002807D0606D022194
:1033E000084360651020C0432168886020688068B9
:1033F00020210840400900280FD0606D01210843BA
:10340000606500BF206880680090206800684021E7
:1034100088432168086000BF00BF206880684021A1
:1034200008408009002810D05120005D12280CD0DF
:10343000606D04210843606500BF2068C06800908B
:1034400020688068009000BF00BF20688068FF216E
:1034500001310840000A002809D0606D08210843A6
:10346000606500BF20688068009000BF00BF606D8D
:1034700000280BD020684068E0218843216848601C
:103480000121512001552046FFF766F900BF84E76E
:1034900001465120405C70470146486D704700006E
:1034A000272F0008432E0008892C0008FFB581B0A3
:1034B00004460D4617460A9E24E0701C002821D0C1
:1034C000002E05D0FDF7FFFA0499401AB04219D931
:1034D00020680068FF21A1318843216808602068C6
:1034E00080684008400021688860202169200155DB
:1034F0006A20015500BF00216820015500BF03204C
:1035000005B0F0BD2068C0692840A84201D1012063
:1035100000E00020B842D0D00020F1E738B50446E2
:1035200000250020E066FDF7CEFA05462068006819
:103530000821084008280BD1FD482B4600228904A9
:1035400000902046FFF7B2FF002801D0032038BDCD
:10355000206800680421084004280BD1F4482B4659
:103560000022090500902046FFF7A0FF002801D0A7
:103570000320ECE72021692001556A20015500BF96
:1035800000216820015500BF0020E0E7FEB5044699
:103590000025102600200290E6492068884201D1CB
:1035A000012000E00020002800D000E000BF2169D9
:1035B000A068084361690843E1690843054620683B
:1035C0000068DD4908402843216808602068406899
:1035D000032109038843E168084321684860A5691D
:1035E000D4492068884201D1012000E00020002851
:1035F00001D1206A0543206880680B2109028843B5
:1036000028432168886000BFCC492068884217D1D0
:10361000CB48C0688007800F002806D0012808D05A
:10362000022804D0032808D105E0012607E002267D
:1036300005E0042603E0082601E0102600BF3AE07A
:10364000C0492068884217D1BD48C0680C21084095
:10365000002806D0042808D0082804D00C2808D157
:1036600005E0002607E0022605E0042603E0082620
:1036700001E0102600BF1EE0AE49206888421AD142
:10368000AF48C068032189020840002808D0012102
:103690008902401A08D0401A04D0401A08D105E027
:1036A000002607E0022605E0042603E0082601E0E4
:1036B000102600BF00BF00BF9E492068884201D18C
:1036C000012000E00020002855D00025042E1AD04B
:1036D00004DC002E07D0022E1CD108E0082E16D0E4
:1036E000102E17D117E0FEF78EFA054616E0944823
:1036F00040380068102108400009002801D0924D90
:1037000000E0924D0AE0FEF7BFF8054606E001250D
:10371000ED0303E000BF0120029000BF00BF002DB9
:103720000AD0606841004018A84203D860680003CE
:10373000A84202D2012002907FE02846FF210131F9
:10374000676803F0A3FD626852080023801859419E
:103750003A460191009003F011FD05460320000256
:10376000854205D37A48854202D82068C56064E066
:103770000120029061E0042E42D006DC002E09D028
:10378000012E14D0022E53D11EE0082E45D0102E4B
:103790004ED14EE0FEF737FA6168490847183846BF
:1037A000616803F0C1FC80B22168C86044E0FEF7A4
:1037B00037FA6168490847183846616803F0B4FC75
:1037C00080B22168C86037E05D4840380068102149
:1037D00008400009002809D061684A085A4BD018EF
:1037E00003F0A2FC80B22168C86008E061684A0862
:1037F000564BD01803F098FC80B22168C8601BE0DB
:10380000FEF742F86168490847183846616803F0D6
:103810008BFC80B22168C8600EE061684A08012311
:10382000DB03D01803F080FC80B22168C86003E09D
:1038300000BF0120029000BF00BF0298FEBD818C36
:10384000C907C90F002908D001684968012252043C
:103850009143826A1143026851600222416A114019
:10386000002907D001684968D2039143C26A114315
:10387000026851600422416A1140002907D00168A2
:10388000496812049143026B114302685160082297
:10389000416A1140002907D0016849681203914329
:1038A000426B1143026851601022416A11400029A5
:1038B00007D00168896812029143826B1143026844
:1038C00091602022416A1140002907D0016889686F
:1038D00012029143C26B1143026891604022416A17
:1038E0001140002915D00168496892039143026C88
:1038F00011430268516001221205016C914208D106
:1039000001684968032252059143426C11430268E1
:1039100051608022416A1140002907D0016849683E
:1039200012039143826C114302685160704700009A
:10393000FFFFFF0100480040F369FFEF003801403E
:10394000401002400044004000093D000024F40003
:10395000FFFF0F00704710B50446002C01D1012075
:1039600010BDA069002800D000E000BF6920005D04
:10397000002805D10021682001552046FFF7EAFF05
:103980002421692001552068006840084000216812
:103990000860606A002802D02046FFF750FF2046EA
:1039A000FFF7F4FD012800D1DAE72068406809211B
:1039B000C902884321684860206880682A218843BA
:1039C0002168886020680068012108432168086038
:1039D0002046FFF7A3FDC3E710B50446002C01D134
:1039E000012010BD6920005D002805D1002168205C
:1039F00001552046FFF7AEFF2421692001552068BC
:103A000000684008400021680860606A002802D011
:103A10002046FFF714FF2046FFF7B8FD012800D12C
:103A2000DFE7206840680921C902884321684860AF
:103A30002068806822218843216888602068806827
:103A40000821084321688860206800680121084334
:103A5000216808602046FFF761FDC2E770B50446A3
:103A60000D46002C01D1012070BD0121C903E06980
:103A7000884201D10120F7E7A068002801D0012089
:103A8000F2E76920005D002805D10021682001557A
:103A90002046FFF75FFF2421692001552068006858
:103AA0004008400021680860606A002802D0204673
:103AB000FFF7C5FE2046FFF769FD012800D1D3E7D7
:103AC000206840680121C902884321684860206855
:103AD00080682A2188432168886020684068012125
:103AE0008903084321684860206840682021884392
:103AF0002843216848602068006801210843216844
:103B000008602046FFF70AFDAEE770B504460E4692
:103B10001546002C01D1012070BD6920005D0028F0
:103B200005D10021682001552046FFF713FF24210D
:103B3000692001552068006840084000216808603D
:103B4000606A002802D02046FFF779FE2046FFF782
:103B50001DFD012800D1DFE7206840680921C90266
:103B6000884321684860206880682A21884321684A
:103B700088600120C002854207D1206840680002A9
:103B8000000A310608432168486020680068012166
:103B9000C902884328432168086020680068012121
:103BA0000843216808602046FFF7B8FCB4E7704777
:103BB00010B50446002C01D1012010BD242169203C
:103BC0000155206800684008400021680860002016
:103BD0002168086021684860216888602046FFF7F6
:103BE000E6FF0020E0660021692001556A200155AA
:103BF00000BF6820015500BF0020DEE7FEB5044687
:103C00000D4616461F46002001906920005D2028C1
:103C10006AD1002D01D0002E01D10120FEBD01216D
:103C20000903A068884208D12069002805D1E80767
:103C3000C00F002801D00120F0E700BF6820005D20
:103C4000012801D10220E9E701216820015500BFC8
:103C50000020E066212169200155FCF734FF019026
:103C6000502006535220065325E05220005B401E90
:103C700081B2522001530097002280212046019BEF
:103C8000FFF714FC002801D00320C7E70121090336
:103C9000A06888420BD12069002808D10295029DB6
:103CA0002888C005C00D21688862AD1C03E0287813
:103CB0006D1C216888625220005B0028D5D10097D6
:103CC000002240212046019BFFF7F0FB002801D095
:103CD0000320A3E720216920015500BF00216820AF
:103CE000015500BF002099E7022097E7FFB583B098
:103CF00004460D461646002001906A20005D2028EB
:103D000070D1002D01D0002E02D1012007B0F0BDEE
:103D100001210903A068884208D12069002805D143
:103D2000E807C00F002801D00120EFE700BF68209E
:103D3000005D012801D10220E8E70121682001553A
:103D400000BF0020E06622216A200155FCF7BBFE7F
:103D50000190582006535A20065300BF0121090341
:103D6000A06888420AD12069002803D1FE495C205E
:103D7000015320E0FF215C2001531CE0A0680028D3
:103D80000AD12069002803D1FF215C20015312E0F1
:103D90007F215C2001530EE001210907A0688842C1
:103DA00009D12069002803D17F215C20015302E062
:103DB0003F215C20015300BF5C20005B029029E0A2
:103DC0005A20005B401E81B25A2001530698009091
:103DD000002220212046019BFFF768FB002802D02B
:103DE000032093E724E001210903A06888420AD157
:103DF0002069002807D12F462068406A02990840B0
:103E00003880AD1C06E02068406A0299C9B20840BB
:103E100028706D1C5A20005B0028D1D120216A2017
:103E2000015500BF00216820015500BF00206DE74B
:103E300002206BE710B503466920C05C202835D10D
:103E4000002901D0002A01D1012010BD0124240342
:103E50009868A04208D11869002805D1C807C00F8A
:103E6000002801D00120F0E700BF6820C05C0128D5
:103E700001D10220E9E701246820C45400BFD964BD
:103E80005020C2525220C2520020D86621246920FC
:103E9000C45400BF00246820C45400BF18680068E0
:103EA000802420431C6820600020CEE70220CCE75D
:103EB00010B503466A20C05C20286AD1002901D0D1
:103EC000002A01D1012010BD012424039868A042DA
:103ED00008D11869002805D1C807C00F002801D0F3
:103EE0000120F0E700BF6820C05C012801D102205A
:103EF000E9E701246820C45400BF59655820C25224
:103F00005A20C25200BF24039868A0420AD11869FF
:103F1000002803D1944C5C20C45220E0FF245C2094
:103F2000C4521CE0986800280AD11869002803D1FF
:103F3000FF245C20C45212E07F245C20C4520EE0B7
:103F4000012424079868A04209D11869002803D1E8
:103F50007F245C20C45202E03F245C20C45200BF96
:103F60000020D86622246A20C45400BF00246820A0
:103F7000C45400BF18688068012420431C68A060F6
:103F800018680068FF24213420431C68206000204A
:103F900099E7022097E7704701680968FF222132FC
:103FA0009143026811600168896849084900026804
:103FB000916020226A210A54704701680968C02272
:103FC000914302681160202269210A54704770B53C
:103FD0000546AC6A6920005D21280BD12068806805
:103FE00080210840002805D000215220015320469E
:103FF000FFF7E3FF6A20005D22280BD1206880686C
:1040000040210840002805D000215A2001532046B5
:10401000FFF7C2FFE06E10210843E066204602F081
:10402000C4FC70BD704770B50446A56A2846FFF70A
:10403000F9FF70BD704770B50546AC6A2868006826
:104040002021084000280FD1002152200153206870
:10405000806880218843216888602068006840214A
:1040600008432168086002E02046FFF7E3FF70BDC7
:1040700070B504460E4615466920005D20284CD1D7
:10408000002E01D0002D01D1012070BD01210903B6
:10409000A068884208D12069002805D1F007C00F28
:1040A000002801D00120F0E700BF6820005D012852
:1040B00001D10220E9E701216820015500BFE66433
:1040C00050200553522005530020E066212169202D
:1040D00001552648216EC8622548216E086325488F
:1040E000216E48630020216E886323681A462832B7
:1040F0002B46E16C206E01F012F940202168086225
:1041000000BF00216820015500BF20688068802121
:104110000843216888600020B7E70220B5E77047B0
:1041200070B50446A56A2846FFF7F9FF70BD7047D1
:1041300070B50546AC6A2868006820210840002850
:1041400021D100215A20015320680068FF2101314C
:104150008843216808602068806840084000216822
:1041600088602068806807E0FF0100003740000891
:1041700027400008CF3F000840218843216888601D
:1041800020216A2001552046FCF75FFB70BD70B509
:1041900004460D4616466A20005D202854D1002DA5
:1041A00001D0002E01D1012070BD01210903A068BA
:1041B000884208D12069002805D1E807C00F0028EF
:1041C00001D00120F0E700BF6820005D012801D187
:1041D0000220E9E701216820015500BF65655820EC
:1041E00006530020E06622216A200155FE48616ED8
:1041F000C862FE48616E0863FD48616E4863002036
:10420000616E88632368194624313346626D606E9F
:1042100001F085F800BF00216820015500BF20682B
:104220000068FF2101310843216808602068806828
:104230000121084321688860206880684021084384
:10424000216888600020AFE70220ADE7014600BF8B
:104250006820405C012801D10220704701226820BB
:10426000425400BF6920405C21280AD10868806858
:1042700080221040002804D00868806890430A68B3
:1042800090606A20405C222817D10868806840222C
:104290001040002811D008680068920090430A6816
:1042A000106008688068400840000A6890600868EC
:1042B0008068402290430A68906000BF0022682016
:1042C000425400BF0020C8E7014600BF6820405CA0
:1042D000012801D10220704701226820425400BF0A
:1042E0006920405C212805D108688068802210433D
:1042F0000A6890606A20405C222815D108200A686C
:10430000106208680068FF22013210430A681060DA
:1043100008688068012210430A6890600868806815
:10432000402210430A68906000BF00226820425477
:1043300000BF0020CFE710B504466920005D2128AA
:1043400013D1206880688021084000280DD02068A3
:104350008068884321688860206E002802D0206E23
:1043600001F016F82046FFF728FE6A20005D22289B
:1043700013D1206880684021084000280DD02068B3
:104380008068884321688860606E002802D0606E73
:1043900000F0FEFF2046FFF7FFFD002010BD10B526
:1043A000044620680068FF21E131884321680860E5
:1043B0002068806840084000216888602068806824
:1043C0008021084000280DD020688068884321683B
:1043D0008860206E002805D00020216E8863206E42
:1043E00000F0D6FF206880684021084000280DD0EA
:1043F00020688068884321688860606E002805D046
:104400000020616E8863606E00F0C2FF00215220C0
:1044100001535A2001530F2021680862202169208E
:1044200001556A2001550020E06610BD10B5044614
:1044300020680068C021884321680860206880687F
:104440008021084000280DD02068806888432168BA
:104450008860206E002805D00020216E8863206EC1
:1044600000F096FF002152200153202169200155C0
:10447000002010BD10B5044620680068FF212131DE
:1044800088432168086020688068400840002168EF
:104490008860206880684021084000280DD020688E
:1044A0008068884321688860606E002805D00020FD
:1044B000616E8863606E00F06BFF00215A2001532B
:1044C0000F202168086220216A200155002010BDBC
:1044D000704770B50546AC6A0020616E8863206E37
:1044E000002804D0206E806B002800D070BD002111
:1044F000522001535A2001530020E0660F2021680A
:1045000008622021692001556A2001552046FFF7E5
:10451000DFFF00BFEAE770B50546AC6A0020216EF8
:104520008863606E002804D0606E806B002800D025
:1045300070BD0021522001535A2001530020E06633
:104540000F20216808622021692001556A20015549
:104550002046FFF7BDFF00BFEAE770B5044601251E
:1045600020680068FF21E1318843216808602068E5
:104570008068A84321688860206E00280CD02068DD
:10458000806880210840002803D01A48216E886383
:1045900002E00020216E8863606E00280CD0206845
:1045A000806840210840002803D01348616E88636A
:1045B00002E00020616E88632068806880210840E6
:1045C00000281CD020688068884321688860206E9D
:1045D000002814D0206E00F00DFF00280ED000201F
:1045E000216E88630BE00000314100082141000882
:1045F000CF3F000817450008D34400080025206875
:10460000806840210840002812D0206880688843D4
:1046100021688860606E00280AD0606E00F0EAFEB3
:10462000002804D00020616E8863012500E0002589
:10463000012D11D10021522001535A200153002095
:10464000E0660F20216808622021692001556A2058
:1046500001552046FFF73CFF002070BD704770B544
:104660000546AC6A002152200153202169200155E2
:104670002046FFF7F3FF70BD10B5044620680068C0
:10468000C021884321680860206880688021084034
:1046900000281DD020688068884321688860206ECB
:1046A00000280BD0FD48216E8863206E00F0A2FE2A
:1046B000002816D0206E816B884712E0002152201E
:1046C00001532021692001552046FFF7C7FF08E06C
:1046D0000021522001532021692001552046FFF777
:1046E000BDFF002010BD704770B50546AC6A0021C3
:1046F0005A2001530F202168086220216A200155A9
:104700002046FFF7F0FF70BD10B504462068006832
:10471000FF212131884321680860206880684008B3
:104720004000216888602068806840210840002897
:1047300020D020688068884321688860606E0028E7
:104740000BD0D748616E8863606E00F053FE00287E
:104750001CD0606E816B884718E000215A200153FD
:104760000F202168086220216A2001552046FFF7AA
:10477000BAFF0BE000215A2001530F202168086284
:1047800020216A2001552046FFF7ADFF002010BD13
:1047900070B50546AC6A00215A20015352200153DE
:1047A000204602F002F970BDF8B504465C20075BB4
:1047B0006A20005D22283AD12068406A85B2012132
:1047C0000903A06888420AD12069002807D1666DD4
:1047D000284638403080606D801C606505E0F8B286
:1047E0002840626D511C616510705A20005B401EAC
:1047F00081B25A200153002914D120680068FF219A
:1048000021318843216808602068806840084000A2
:104810002168886020216A2001552046FCF715F8A0
:104820000020F8BD2046FCF710F80020F9E72068CA
:10483000806908210843216888610220F1E7F8B502
:1048400004462068C569206807682807000F0090A3
:10485000009800280BD120202840002807D02020D5
:104860003840002803D02046FFF79EFFF8BD20689F
:104870008668009800287DD0F007C00F002804D17A
:10488000FF20213038400028F5D0E807C00F00286D
:104890000BD0FF2001303840002806D001202168CD
:1048A0000862E06E01210843E066022028400028EB
:1048B0000AD0F007C00F002806D002202168086245
:1048C000E06E04210843E0660420284000280AD056
:1048D000F007C00F002806D0042021680862E06EAF
:1048E00002210843E0660820284000280ED020203E
:1048F0003840002803D1F007C00F002806D0082058
:1049000021680862E06E08210843E066E06E002836
:1049100041D020202840002806D020203840002800
:1049200002D02046FFF740FFE06E08210840002833
:1049300005D12068806840210840002826D0204604
:10494000FFF72AFB2068806840210840002819D022
:1049500020688068884321688860606E00280DD0D8
:104960005048616E8863606E00F044FD002812D0EC
:10497000606E00E010E0816B88470CE0204602F09A
:1049800014F808E0204602F010F804E0204602F097
:104990000CF80020E06669E70120000528400028A7
:1049A00011D001208005304000280CD001200005E6
:1049B000216808622021692001556A20015520469E
:1049C00000F05FFA52E700BF50E710B5044600BFA1
:1049D0006820005D012801D1022010BD012168205E
:1049E000015500BF2421692001552068006801217C
:1049F00049030843216808602021692001552046A9
:104A0000FEF78CFDE9E710B5044600BF6820005DA5
:104A1000012801D1022010BD01216820015500BFED
:104A20002421692001552068006801214903884339
:104A3000216808602021692001552046FEF76EFD9F
:104A4000E9E70168896904221143026891617047AE
:104A5000014600BF6820405C012801D10220704758
:104A600001226820425400BF242269204254086871
:104A700000680C2290430A681060086800680822E9
:104A800010430A68106020226920425400BF0022AF
:104A90006820425400BF0020E1E700005F460008A4
:104AA000E946000891470008014600BF6820405CC5
:104AB000012801D10220704701226820425400BF22
:104AC000242269204254086800680C2290430A6836
:104AD000106008680068042210430A6810602022F1
:104AE0006920425400BF00226820425400BF0020C9
:104AF000E1E7014600BF6820405C012801D10220A7
:104B0000704701226820425400BF24226920425489
:104B100008688069022210430A6890612022692097
:104B2000425400BF00226820425400BF0020E7E743
:104B30000146002200236920425C6A20435C104643
:104B4000184370470146C86E704701466920405CB3
:104B5000212831D15220405A00280DD10868006820
:104B6000802398430B681860086800684023184346
:104B70000B6818600020704701231B038868984267
:104B80000CD10869002809D1CA6C1088C005C00D75
:104B90000B689862C86C801CC86405E0CB6C581C1C
:104BA000C86418780B6898625220405A401E83B23D
:104BB000522043520020DEE70220DCE710B5044615
:104BC000206800684021884321680860202169200E
:104BD00001552046FFF72EFA002010BDFFB581B029
:104BE00004460D4616460027002C02D1012005B0D0
:104BF000F0BD6920005D002805D100216820015525
:104C00002046FEF7A7FE2421692001552068006890
:104C10004008400021680860606A002802D02046F1
:104C2000FEF70DFE2046FEF7B1FC012800D1DEE7BD
:104C30002068806801218903084321688860206812
:104C400080680121C903884328432168886077056B
:104C5000049800040743206800688A4908403843E4
:104C60002168086020680068012108432168086005
:104C70002046FEF753FCBAE770B504460D46002CFB
:104C800001D1012070BD24216920015520680068F0
:104C9000400840002168086020684068102188436F
:104CA0002843216848602068006801210843216882
:104CB00008602046FEF732FCE4E707B5694609893B
:104CC000002900D100E000BF01684968102291432B
:104CD0006A461289114302685160016849680902F5
:104CE000090A6A46927A12061143026851600EBDA3
:104CF00077B581B004460025002600BF6820005D1E
:104D0000012802D1022004B070BD012168200155A4
:104D100000BF242169200155206800684008400038
:104D2000216808602068806803210905884302998A
:104D30000843216888600298002804D12046039A1D
:104D40000299FFF7BAFF2068006801210843216833
:104D50000860FBF7B8FE06464B48334600220121A7
:104D6000890500902046FEF7A1FB002801D003250D
:104D700002E020216920015500BF00216820015573
:104D800000BF2846BFE7014600BF6820405C0128FD
:104D900001D10220704701226820425400BF242222
:104DA0006920425408680068022210430A681060B3
:104DB00020226920425400BF00226820425400BFD4
:104DC0000020E7E7014600BF6820405C012801D1D0
:104DD0000220704701226820425400BF242269202B
:104DE000425408680068022290430A68106020223A
:104DF0006920425400BF00226820425400BF0020B6
:104E0000E7E7014600BF6820405C012801D102208D
:104E1000704701226820425400BF24226920425476
:104E2000086880680122D20510430A689060202239
:104E30006920425400BF00226820425400BF002075
:104E4000E6E7014600BF6820405C012801D102204E
:104E5000704701226820425400BF24226920425436
:104E6000086880680122D20590430A689060202279
:104E70006920425400BF00226820425400BF002035
:104E8000E6E77047FFFF00FCFFFFFF01014600223D
:104E9000002901D1012070472520405C002802D163
:104EA0000023242043540223252043540868026829
:104EB000FD480240CB68886818430B6918434B696A
:104EC00018438B691843CB6918430B6A1843024394
:104ED00008680260F54B086898420FD1F3487830B3
:104EE000806A00090001F14B783398621846806AA5
:104EF0004B681843ED4B7833986285E0EB4B1433E5
:104F00000868984210D1E9487830806AF0239843C5
:104F1000E64B783398621846806A4B681B01184349
:104F2000E24B783398626FE0E04B28330868984290
:104F300011D1DE487830806A0F231B029843DB4B87
:104F4000783398621846806A4B681B021843D74B27
:104F50007833986258E0D54B3C330868984211D1B9
:104F6000D2487830806A0F231B039843CF4B7833A5
:104F700098621846806A4B681B031843CB4B783302
:104F8000986241E0C94B50330868984211D1C74834
:104F90007830806A0F231B049843C44B783398629F
:104FA0001846806A8B881B041843C04B783398627C
:104FB0002AE0BE4B64330868984211D1BB48783070
:104FC000806A0F231B059843B84B783398621846C4
:104FD000806A8B881B051843B44B7833986213E0C2
:104FE000B24B7833086898420ED1806A0F231B06B3
:104FF0009843AE4B783398621846806A0B791B064B
:105000001843AA4B7833986201232520435400208B
:1050100041E70146002901D1012070472520405C6D
:10502000022801D10120F8E7086800684008400024
:105030000A68106000200A6810600A6850600A68F8
:1050400090600A68D060994A0868904201D10120B6
:1050500026E0964A14320868904201D110201FE0E1
:10506000924A28320868904201D1801518E08F4A90
:105070003C320868904201D1801411E08B4A5032D2
:105080000868904202D10120000409E0874A643296
:105090000868904202D10120000501E001200006CD
:1050A000824A083A5060814A0868904201D1022041
:1050B00027E07E4A14320868904201D1202020E087
:1050C0007A4A28320868904201D1401519E0774A9F
:1050D0003C320868904202D10120400311E0734A3B
:1050E00050320868904202D10120400409E06F4A22
:1050F00064320868904202D10120400501E001209D
:1051000040066A4A083A5060684A0868904201D1ED
:10511000082027E0654A14320868904201D18020B7
:1051200020E0624A28320868904201D1C01419E098
:105130005E4A3C320868904202D10120C00311E06F
:105140005A4A50320868904202D10120C00409E056
:10515000564A64320868904202D10120C00501E03D
:105160000120C006514A083A5060504A08689042EF
:1051700001D1042027E04D4A14320868904201D141
:10518000402020E0494A28320868904201D10015A9
:1051900019E0464A3C320868904202D1012080035F
:1051A00011E0424A50320868904202D10120800446
:1051B00009E03E4A64320868904202D1012080052D
:1051C00001E001208006394A083A5060374A0868F1
:1051D000904208D135487830806A00090001334A8E
:1051E0007832906255E0314A14320868904208D112
:1051F0002E487830806AF02290432C4A78329062B0
:1052000047E02A4A28320868904209D12748783076
:10521000806A0F2212029043244A7832906238E06A
:10522000224A3C320868904209D120487830806A8E
:105230000F22120390431D4A7832906229E01B4AE4
:1052400050320868904209D118487830806A0F229D
:1052500012049043154A783290621AE0134A64327D
:105260000868904209D111487830806A0F221205EF
:1052700090430E4A783290620BE00C4A783208680C
:10528000904206D1806A0F2212069043074A783274
:1052900090620020C86300222520425400BF2420D1
:1052A000425400BF0020B8E60FC0FFFF08000240D4
:1052B00010B5046863608468102C04D10468A2608F
:1052C0000468E16003E00468A1600468E26010BD66
:1052D000F8B504460D4616461F4600BF2420005D63
:1052E000012801D10220F8BD01212420015500BF71
:1052F00002212520015520680068400840002168EF
:1053000008603B46324629462046FFF7D1FF206819
:10531000006801210843216808600020E3E7F8B530
:1053200004460D4616461F4600BF2420005D012896
:1053300001D10220F8BD01212420015500BF022126
:105340002520015520680068400840002168086059
:105350003B46324629462046FFF7AAFF20680068F0
:10536000022108432168086020680068042108437E
:1053700021680860206800680821084321680860E7
:105380002068006801210843216808600020D1E7F7
:1053900070B5044600252068006840084000216878
:1053A0000860FBF790FB054614E0FBF78CFB401B05
:1053B0007D21C90088420DD9E06B20210843E063BC
:1053C00000BF00212420015500BF032125200155E5
:1053D000032070BD20680068C007C00F0028E4D11A
:1053E00000BF00212420015500BF012125200155C7
:1053F0000020EEE770B5044600252520005D022858
:1054000003D00420E063012549E0206800680E21F4
:1054100088432168086020680068400840002168CF
:105420000860FD492068884201D1012026E0FA4940
:1054300014312068884201D110201FE0F64928313C
:105440002068884201D1801518E0F3493C3120687A
:10545000884201D1801411E0EF4950312068884220
:1054600002D10120000409E0EB4964312068884240
:1054700002D10120000501E001200006E6490839BB
:10548000486001212520015500BF0021242001553D
:1054900000BFA06B002802D02046A16B8847284699
:1054A00070BDF8B504460E46154600200090002E4B
:1054B0002FD1D9492068884201D1022027E0D6495E
:1054C00014312068884201D1202020E0D2492831BF
:1054D0002068884201D1401519E0CF493C3120684D
:1054E000884202D10120400311E0CB4950312068AD
:1054F000884202D10120400409E0C7496431206894
:10550000884202D10120400501E001204006074603
:105510002EE0C1492068884201D1042027E0BE491D
:1055200014312068884201D1402020E0BA49283156
:105530002068884201D1001519E0B7493C31206844
:10554000884202D10120800311E0B3495031206824
:10555000884202D10120800409E0AF49643120680B
:10556000884202D10120800501E001208006074623
:10557000FBF7A9FA00908BE0A74808380068A64A14
:105580002168914201D1082127E0A34A1432216801
:10559000914201D1802120E09F4A28322168914226
:1055A00001D1C91419E09C4A3C322168914202D1D0
:1055B0000121C90311E0984A50322168914202D179
:1055C0000121C90409E0944A64322168914202D160
:1055D0000121C90501E00121C906084000283ED08B
:1055E0008D492068884201D1082027E08A4914317A
:1055F0002068884201D1802020E087492831206836
:10560000884201D1C01419E083493C3120688842A6
:1056100002D10120C00311E07F4950312068884247
:1056200002D10120C00409E07B496431206888422E
:1056300002D10120C00501E00120C00676490839E9
:105640004860E06B01210843E063042125200155F7
:1056500000BF00212420015500BF0120F8BD681CB7
:10566000002815D0002D05D0FBF72DFA0099401A1F
:10567000A8420DD9E06B20210843E06303212520D7
:10568000015500BF00212420015500BF0320E5E79C
:105690006148083800683840002800D16CE7002EC7
:1056A00038D15D492068884201D1022027E05A495B
:1056B00014312068884201D1202020E05649283149
:1056C0002068884201D1401519E053493C312068D7
:1056D000884202D10120400311E04F495031206837
:1056E000884202D10120400409E04B49643120681E
:1056F000884202D10120400501E0012040064649D0
:105700000839486001212520015500BF00212420CF
:10571000015538E040492068884201D1042027E043
:105720003D4914312068884201D1402020E03A49A7
:1057300028312068884201D1001519E036493C31F2
:105740002068884202D10120800311E032495031A3
:105750002068884202D10120800409E02E4964318A
:105760002068884202D10120800501E001208006E6
:1057700029490839486005212520015500BF00212D
:105780002420015500BF002068E710B504462248D8
:1057900008380068204A2168914201D1082127E099
:1057A0001D4A14322168914201D1802120E01A4A19
:1057B00028322168914201D1C91419E0164A3C32BD
:1057C0002168914202D10121C90311E0124A5032ED
:1057D0002168914202D10121C90409E00E4A6432D4
:1057E0002168914202D10121C90501E00121C906C8
:1057F000084000284ED02068006808210840002892
:1058000048D0206800688843216808600249206801
:10581000884203D1082028E008000240A5492068FA
:10582000884201D1802020E0A249143120688842BA
:1058300001D1C01419E09F4928312068884202D163
:105840000120C00311E09B493C312068884202D10D
:105850000120C00409E0974950312068884202D1F4
:105860000120C00501E00120C00692491C394860B2
:10587000E06B01210843E06304212520015500BFAE
:1058800000212420015500BF606B002802D0204673
:10589000616B884787481C380068864A143A21683B
:1058A000914201D1042126E0824A2168914201D12E
:1058B000402120E07F4A14322168914201D109152C
:1058C00019E07C4A28322168914202D101218903E2
:1058D00011E0784A3C322168914202D101218904C9
:1058E00009E0744A50322168914202D101218905B0
:1058F00001E001218906084000284BD0206800689B
:1059000004210840002845D0206800682021084074
:10591000002805D1206800680421884321680860B8
:10592000644914392068884201D1042026E0614985
:105930002068884201D1402020E05E49143120686F
:10594000884201D1001519E05A492831206888425F
:1059500002D10120800311E056493C312068884281
:1059600002D10120800409E0524950312068884268
:1059700002D10120800501E0012080064D491C393B
:105980004860052125200155206B002802D02046C3
:10599000216B884747481C380068464A143A2168FA
:1059A000914201D1022126E0424A2168914201D16F
:1059B000202120E03F4A14322168914201D149154B
:1059C00019E03C4A28322168914202D10121490361
:1059D00011E0384A3C322168914202D10121490448
:1059E00009E0344A50322168914202D1012149052F
:1059F00001E0012149060840002852D020680068D3
:105A00000221084000284CD020680068202108406E
:105A1000002805D1206800680221884321680860B9
:105A2000244914392068884201D1022026E0214906
:105A30002068884201D1202020E01E4914312068CE
:105A4000884201D1401519E01A492831206888425E
:105A500002D10120400311E016493C312068884200
:105A600002D10120400409E01249503120688842E7
:105A700002D10120400501E0012040060D491C39FA
:105A80004860E06BE06301212520015500BF002143
:105A90002420015500BFE06A002802D02046E16AB8
:105AA000884710BD01462520405C70470146C86B01
:105AB000704700001C0002400FB470B505460E464A
:105AC000002400BF20E0282060434E4908580028E9
:105AD00019D14D480068411928206043494A1150A6
